{
  "contractName": "SimpleStorage",
  "abi": [
    {
      "anonymous": false,
      "inputs": [
        {
          "indexed": false,
          "internalType": "uint256",
          "name": "index",
          "type": "uint256"
        }
      ],
      "name": "Added",
      "type": "event"
    },
    {
      "constant": true,
      "inputs": [
        {
          "internalType": "uint256",
          "name": "",
          "type": "uint256"
        }
      ],
      "name": "CheckManf",
      "outputs": [
        {
          "internalType": "string",
          "name": "MedicineName",
          "type": "string"
        },
        {
          "internalType": "uint256",
          "name": "MedicineId",
          "type": "uint256"
        },
        {
          "internalType": "string",
          "name": "Patchno",
          "type": "string"
        },
        {
          "internalType": "address",
          "name": "Creator",
          "type": "address"
        },
        {
          "internalType": "string",
          "name": "Productiondate",
          "type": "string"
        },
        {
          "internalType": "uint256",
          "name": "Rate",
          "type": "uint256"
        },
        {
          "internalType": "string",
          "name": "ManfucturerLocation",
          "type": "string"
        },
        {
          "internalType": "string",
          "name": "ManfucturerInfo",
          "type": "string"
        }
      ],
      "payable": false,
      "stateMutability": "view",
      "type": "function"
    },
    {
      "constant": true,
      "inputs": [
        {
          "internalType": "uint256",
          "name": "",
          "type": "uint256"
        }
      ],
      "name": "CheckSeller",
      "outputs": [
        {
          "internalType": "uint256",
          "name": "productId",
          "type": "uint256"
        },
        {
          "internalType": "string",
          "name": "Productiondate",
          "type": "string"
        },
        {
          "internalType": "string",
          "name": "location",
          "type": "string"
        },
        {
          "internalType": "address",
          "name": "person",
          "type": "address"
        }
      ],
      "payable": false,
      "stateMutability": "view",
      "type": "function"
    },
    {
      "constant": true,
      "inputs": [],
      "name": "items",
      "outputs": [
        {
          "internalType": "uint256",
          "name": "",
          "type": "uint256"
        }
      ],
      "payable": false,
      "stateMutability": "view",
      "type": "function"
    },
    {
      "constant": false,
      "inputs": [
        {
          "internalType": "uint256",
          "name": "_rate",
          "type": "uint256"
        },
        {
          "internalType": "uint256",
          "name": "_medicineId",
          "type": "uint256"
        },
        {
          "internalType": "string",
          "name": "_medicinename",
          "type": "string"
        },
        {
          "internalType": "string",
          "name": "_patchno",
          "type": "string"
        },
        {
          "internalType": "string",
          "name": "_productiondate",
          "type": "string"
        },
        {
          "internalType": "string",
          "name": "_manufacturerlocation",
          "type": "string"
        },
        {
          "internalType": "string",
          "name": "_manfucturerinfo",
          "type": "string"
        }
      ],
      "name": "AddManf",
      "outputs": [
        {
          "internalType": "bool",
          "name": "",
          "type": "bool"
        }
      ],
      "payable": false,
      "stateMutability": "nonpayable",
      "type": "function"
    },
    {
      "constant": false,
      "inputs": [
        {
          "internalType": "uint256",
          "name": "_productId",
          "type": "uint256"
        },
        {
          "internalType": "string",
          "name": "_date",
          "type": "string"
        },
        {
          "internalType": "string",
          "name": "_supplierlocation",
          "type": "string"
        }
      ],
      "name": "addSeller",
      "outputs": [
        {
          "internalType": "bool",
          "name": "",
          "type": "bool"
        }
      ],
      "payable": false,
      "stateMutability": "nonpayable",
      "type": "function"
    }
  ],
  "bytecode": "0x608060405234801561001057600080fd5b5061126e806100206000396000f3fe608060405234801561001057600080fd5b50600436106100575760003560e01c80634a4eac561461005c57806379297636146101a9578063a596f14a14610441578063c06fad06146105b5578063f068feb9146105d3575b600080fd5b6100886004803603602081101561007257600080fd5b8101908080359060200190929190505050610916565b6040518085815260200180602001806020018473ffffffffffffffffffffffffffffffffffffffff1673ffffffffffffffffffffffffffffffffffffffff168152602001838103835286818151815260200191508051906020019080838360005b838110156101045780820151818401526020810190506100e9565b50505050905090810190601f1680156101315780820380516001836020036101000a031916815260200191505b50838103825285818151815260200191508051906020019080838360005b8381101561016a57808201518184015260208101905061014f565b50505050905090810190601f1680156101975780820380516001836020036101000a031916815260200191505b50965050505050505060405180910390f35b6101d5600480360360208110156101bf57600080fd5b8101908080359060200190929190505050610a96565b6040518080602001898152602001806020018873ffffffffffffffffffffffffffffffffffffffff1673ffffffffffffffffffffffffffffffffffffffff16815260200180602001878152602001806020018060200186810386528e818151815260200191508051906020019080838360005b83811015610263578082015181840152602081019050610248565b50505050905090810190601f1680156102905780820380516001836020036101000a031916815260200191505b5086810385528c818151815260200191508051906020019080838360005b838110156102c95780820151818401526020810190506102ae565b50505050905090810190601f1680156102f65780820380516001836020036101000a031916815260200191505b5086810384528a818151815260200191508051906020019080838360005b8381101561032f578082015181840152602081019050610314565b50505050905090810190601f16801561035c5780820380516001836020036101000a031916815260200191505b50868103835288818151815260200191508051906020019080838360005b8381101561039557808201518184015260208101905061037a565b50505050905090810190601f1680156103c25780820380516001836020036101000a031916815260200191505b50868103825287818151815260200191508051906020019080838360005b838110156103fb5780820151818401526020810190506103e0565b50505050905090810190601f1680156104285780820380516001836020036101000a031916815260200191505b509d505050505050505050505050505060405180910390f35b61059b6004803603606081101561045757600080fd5b81019080803590602001909291908035906020019064010000000081111561047e57600080fd5b82018360208201111561049057600080fd5b803590602001918460018302840111640100000000831117156104b257600080fd5b91908080601f016020809104026020016040519081016040528093929190818152602001838380828437600081840152601f19601f8201169050808301925050505050505091929192908035906020019064010000000081111561051557600080fd5b82018360208201111561052757600080fd5b8035906020019184600183028401116401000000008311171561054957600080fd5b91908080601f016020809104026020016040519081016040528093929190818152602001838380828437600081840152601f19601f820116905080830192505050505050509192919290505050610df6565b604051808215151515815260200191505060405180910390f35b6105bd610f3d565b6040518082815260200191505060405180910390f35b6108fc600480360360e08110156105e957600080fd5b8101908080359060200190929190803590602001909291908035906020019064010000000081111561061a57600080fd5b82018360208201111561062c57600080fd5b8035906020019184600183028401116401000000008311171561064e57600080fd5b91908080601f016020809104026020016040519081016040528093929190818152602001838380828437600081840152601f19601f820116905080830192505050505050509192919290803590602001906401000000008111156106b157600080fd5b8201836020820111156106c357600080fd5b803590602001918460018302840111640100000000831117156106e557600080fd5b91908080601f016020809104026020016040519081016040528093929190818152602001838380828437600081840152601f19601f8201169050808301925050505050505091929192908035906020019064010000000081111561074857600080fd5b82018360208201111561075a57600080fd5b8035906020019184600183028401116401000000008311171561077c57600080fd5b91908080601f016020809104026020016040519081016040528093929190818152602001838380828437600081840152601f19601f820116905080830192505050505050509192919290803590602001906401000000008111156107df57600080fd5b8201836020820111156107f157600080fd5b8035906020019184600183028401116401000000008311171561081357600080fd5b91908080601f016020809104026020016040519081016040528093929190818152602001838380828437600081840152601f19601f8201169050808301925050505050505091929192908035906020019064010000000081111561087657600080fd5b82018360208201111561088857600080fd5b803590602001918460018302840111640100000000831117156108aa57600080fd5b91908080601f016020809104026020016040519081016040528093929190818152602001838380828437600081840152601f19601f820116905080830192505050505050509192919290505050610f43565b604051808215151515815260200191505060405180910390f35b6001602052806000526040600020600091509050806000015490806001018054600181600116156101000203166002900480601f0160208091040260200160405190810160405280929190818152602001828054600181600116156101000203166002900480156109c85780601f1061099d576101008083540402835291602001916109c8565b820191906000526020600020905b8154815290600101906020018083116109ab57829003601f168201915b505050505090806002018054600181600116156101000203166002900480601f016020809104026020016040519081016040528092919081815260200182805460018160011615610100020316600290048015610a665780601f10610a3b57610100808354040283529160200191610a66565b820191906000526020600020905b815481529060010190602001808311610a4957829003601f168201915b5050505050908060030160009054906101000a900473ffffffffffffffffffffffffffffffffffffffff16905084565b6002602052806000526040600020600091509050806000018054600181600116156101000203166002900480601f016020809104026020016040519081016040528092919081815260200182805460018160011615610100020316600290048015610b425780601f10610b1757610100808354040283529160200191610b42565b820191906000526020600020905b815481529060010190602001808311610b2557829003601f168201915b505050505090806001015490806002018054600181600116156101000203166002900480601f016020809104026020016040519081016040528092919081815260200182805460018160011615610100020316600290048015610be65780601f10610bbb57610100808354040283529160200191610be6565b820191906000526020600020905b815481529060010190602001808311610bc957829003601f168201915b5050505050908060030160009054906101000a900473ffffffffffffffffffffffffffffffffffffffff1690806004018054600181600116156101000203166002900480601f016020809104026020016040519081016040528092919081815260200182805460018160011615610100020316600290048015610caa5780601f10610c7f57610100808354040283529160200191610caa565b820191906000526020600020905b815481529060010190602001808311610c8d57829003601f168201915b505050505090806005015490806006018054600181600116156101000203166002900480601f016020809104026020016040519081016040528092919081815260200182805460018160011615610100020316600290048015610d4e5780601f10610d2357610100808354040283529160200191610d4e565b820191906000526020600020905b815481529060010190602001808311610d3157829003601f168201915b505050505090806007018054600181600116156101000203166002900480601f016020809104026020016040519081016040528092919081815260200182805460018160011615610100020316600290048015610dec5780601f10610dc157610100808354040283529160200191610dec565b820191906000526020600020905b815481529060010190602001808311610dcf57829003601f168201915b5050505050905088565b600080548410610e0557600080fd5b610e0d6110fb565b60405180608001604052808681526020018581526020018481526020013373ffffffffffffffffffffffffffffffffffffffff168152509050806001600080548152602001908152602001600020600082015181600001556020820151816001019080519060200190610e81929190611139565b506040820151816002019080519060200190610e9e929190611139565b5060608201518160030160006101000a81548173ffffffffffffffffffffffffffffffffffffffff021916908373ffffffffffffffffffffffffffffffffffffffff1602179055509050506001600054016000819055507f64a55044d1f2eddebe1b90e8e2853e8e96931cefadbfa0b2ceb34bee360619416001600054036040518082815260200191505060405180910390a160019150509392505050565b60005481565b6000610f4d6111b9565b6040518061010001604052808881526020018981526020018781526020013373ffffffffffffffffffffffffffffffffffffffff1681526020018681526020018a81526020018581526020018481525090508060026000805481526020019081526020016000206000820151816000019080519060200190610fd0929190611139565b50602082015181600101556040820151816002019080519060200190610ff7929190611139565b5060608201518160030160006101000a81548173ffffffffffffffffffffffffffffffffffffffff021916908373ffffffffffffffffffffffffffffffffffffffff160217905550608082015181600401908051906020019061105b929190611139565b5060a0820151816005015560c0820151816006019080519060200190611082929190611139565b5060e082015181600701908051906020019061109f929190611139565b509050506001600054016000819055507f64a55044d1f2eddebe1b90e8e2853e8e96931cefadbfa0b2ceb34bee360619416001600054036040518082815260200191505060405180910390a16001915050979650505050505050565b6040518060800160405280600081526020016060815260200160608152602001600073ffffffffffffffffffffffffffffffffffffffff1681525090565b828054600181600116156101000203166002900490600052602060002090601f016020900481019282601f1061117a57805160ff19168380011785556111a8565b828001600101855582156111a8579182015b828111156111a757825182559160200191906001019061118c565b5b5090506111b59190611214565b5090565b604051806101000160405280606081526020016000815260200160608152602001600073ffffffffffffffffffffffffffffffffffffffff168152602001606081526020016000815260200160608152602001606081525090565b61123691905b8082111561123257600081600090555060010161121a565b5090565b9056fea265627a7a7231582023e99c610e4e01ce0be48f8d56df58b68833f5fd071dba11640c6b09f931dfd664736f6c63430005100032",
  "source": "// SPDX-License-Identifier: MIT\npragma solidity >=0.4.21 <0.7.0;\n\ncontract SimpleStorage {\n//   uint storedData;\n\n//   uint public items;\n\n//   struct Manf{\n//     uint id;\n//     string MedicineName;\n//   }\n\n//   mapping (uint => Manf) public CheckManf;\n\n  \n\n//   function AddManf(uint _medicineId,string memory _medicinename)public returns(bool){\n//             Manf memory NewManf=Manf(_medicineId,_medicinename);\n//             CheckManf[items]=NewManf;\n//             items = items+1;\n           \n//             return true;\n            \n//     }\n\n//   function set(uint x) public {\n//     storedData = x;\n//   }\n\n//   function get() public view returns (uint) {\n//     return storedData;\n//   }\nevent Added(uint256 index);\n    \n    uint public items;\n    \n    struct Seller{\n        uint productId;\n        string Productiondate;\n        string location;\n        address person;\n        \n    }mapping (uint => Seller) public CheckSeller;\n    \n    struct Manf{\n        string MedicineName;\n        uint MedicineId;\n        string Patchno;\n        address Creator;\n        string Productiondate;\n        uint Rate;\n        string ManfucturerLocation;\n        string ManfucturerInfo;\n        \n    }\n    \n    mapping(uint=>Manf) public CheckManf;\n    \n    \n    function AddManf(uint _rate,uint _medicineId,string memory _medicinename,string memory _patchno,string memory _productiondate,string memory _manufacturerlocation,string memory _manfucturerinfo)public returns(bool){\n            Manf memory NewManf=Manf(_medicinename,_medicineId,_patchno,msg.sender,_productiondate,_rate,_manufacturerlocation,_manfucturerinfo);\n            CheckManf[items]=NewManf;\n            items = items+1;\n            emit Added(items-1);\n            return true;\n            \n    }\n    \n    \n    function addSeller(uint _productId, string memory _date, string memory _supplierlocation) public returns (bool) {\n        require(_productId<items);\n        Seller memory NewSeller=Seller(_productId,_date,_supplierlocation,msg.sender);\n        CheckSeller[items]=NewSeller;\n    items = items+1;\n            emit Added(items-1);\n        return true;\n    }\n}\n",
  "sourcePath": "E:/react/TeraHash/contracts/SimpleStorage.sol",
  "compiler": {
    "name": "solc",
    "version": "0.5.16+commit.9c3226ce.Emscripten.clang"
  },
  "schemaVersion": "3.4.1",
  "updatedAt": "2021-07-09T16:42:06.634Z",
  "networkType": "ethereum",
  "devdoc": {
    "methods": {}
  },
  "userdoc": {
    "methods": {}
  }
}